{
  "_format": "hh-sol-artifact-1",
  "contractName": "Upload",
  "sourceName": "contracts/Upload.sol",
  "abi": [
    {
      "inputs": [
        {
          "internalType": "address",
          "name": "_user",
          "type": "address"
        },
        {
          "internalType": "string",
          "name": "url",
          "type": "string"
        }
      ],
      "name": "add",
      "outputs": [],
      "stateMutability": "nonpayable",
      "type": "function"
    },
    {
      "inputs": [
        {
          "internalType": "address",
          "name": "user",
          "type": "address"
        }
      ],
      "name": "allow",
      "outputs": [],
      "stateMutability": "nonpayable",
      "type": "function"
    },
    {
      "inputs": [
        {
          "internalType": "address",
          "name": "user",
          "type": "address"
        }
      ],
      "name": "disallow",
      "outputs": [],
      "stateMutability": "nonpayable",
      "type": "function"
    },
    {
      "inputs": [
        {
          "internalType": "address",
          "name": "_user",
          "type": "address"
        }
      ],
      "name": "display",
      "outputs": [
        {
          "internalType": "string[]",
          "name": "",
          "type": "string[]"
        }
      ],
      "stateMutability": "view",
      "type": "function"
    },
    {
      "inputs": [],
      "name": "shareAccess",
      "outputs": [
        {
          "components": [
            {
              "internalType": "address",
              "name": "user",
              "type": "address"
            },
            {
              "internalType": "bool",
              "name": "access",
              "type": "bool"
            }
          ],
          "internalType": "struct Upload.access[]",
          "name": "",
          "type": "tuple[]"
        }
      ],
      "stateMutability": "view",
      "type": "function"
    }
  ],
  "bytecode": "0x6080604052348015600f57600080fd5b506112f88061001f6000396000f3fe608060405234801561001057600080fd5b50600436106100575760003560e01c806336d6da551461005c578063a9ed9cb814610078578063bc8bef8114610094578063eb39113f146100b2578063ff9913e8146100e2575b600080fd5b61007660048036038101906100719190610bcb565b6100fe565b005b610092600480360381019061008d9190610c2b565b61017d565b005b61009c610399565b6040516100a99190610d60565b60405180910390f35b6100cc60048036038101906100c79190610c2b565b6104a2565b6040516100d99190610ed4565b60405180910390f35b6100fc60048036038101906100f79190610c2b565b6106b8565b005b6000808473ffffffffffffffffffffffffffffffffffffffff1673ffffffffffffffffffffffffffffffffffffffff168152602001908152602001600020828290918060018154018082558091505060019003906000526020600020016000909192909192909192909192509182610177929190611146565b50505050565b6000600160003373ffffffffffffffffffffffffffffffffffffffff1673ffffffffffffffffffffffffffffffffffffffff16815260200190815260200160002060008373ffffffffffffffffffffffffffffffffffffffff1673ffffffffffffffffffffffffffffffffffffffff16815260200190815260200160002060006101000a81548160ff02191690831515021790555060005b600260003373ffffffffffffffffffffffffffffffffffffffff1673ffffffffffffffffffffffffffffffffffffffff16815260200190815260200160002080549050811015610395578173ffffffffffffffffffffffffffffffffffffffff16600260003373ffffffffffffffffffffffffffffffffffffffff1673ffffffffffffffffffffffffffffffffffffffff16815260200190815260200160002082815481106102c7576102c6611216565b5b9060005260206000200160000160009054906101000a900473ffffffffffffffffffffffffffffffffffffffff1673ffffffffffffffffffffffffffffffffffffffff1603610388576000600260003373ffffffffffffffffffffffffffffffffffffffff1673ffffffffffffffffffffffffffffffffffffffff168152602001908152602001600020828154811061036357610362611216565b5b9060005260206000200160000160146101000a81548160ff0219169083151502179055505b8080600101915050610215565b5050565b6060600260003373ffffffffffffffffffffffffffffffffffffffff1673ffffffffffffffffffffffffffffffffffffffff168152602001908152602001600020805480602002602001604051908101604052809291908181526020016000905b82821015610499578382906000526020600020016040518060400160405290816000820160009054906101000a900473ffffffffffffffffffffffffffffffffffffffff1673ffffffffffffffffffffffffffffffffffffffff1673ffffffffffffffffffffffffffffffffffffffff1681526020016000820160149054906101000a900460ff161515151581525050815260200190600101906103fa565b50505050905090565b60603373ffffffffffffffffffffffffffffffffffffffff168273ffffffffffffffffffffffffffffffffffffffff1614806105645750600160008373ffffffffffffffffffffffffffffffffffffffff1673ffffffffffffffffffffffffffffffffffffffff16815260200190815260200160002060003373ffffffffffffffffffffffffffffffffffffffff1673ffffffffffffffffffffffffffffffffffffffff16815260200190815260200160002060009054906101000a900460ff165b6105a3576040517f08c379a000000000000000000000000000000000000000000000000000000000815260040161059a906112a2565b60405180910390fd5b6000808373ffffffffffffffffffffffffffffffffffffffff1673ffffffffffffffffffffffffffffffffffffffff168152602001908152602001600020805480602002602001604051908101604052809291908181526020016000905b828210156106ad57838290600052602060002001805461062090610f5f565b80601f016020809104026020016040519081016040528092919081815260200182805461064c90610f5f565b80156106995780601f1061066e57610100808354040283529160200191610699565b820191906000526020600020905b81548152906001019060200180831161067c57829003601f168201915b505050505081526020019060010190610601565b505050509050919050565b60018060003373ffffffffffffffffffffffffffffffffffffffff1673ffffffffffffffffffffffffffffffffffffffff16815260200190815260200160002060008373ffffffffffffffffffffffffffffffffffffffff1673ffffffffffffffffffffffffffffffffffffffff16815260200190815260200160002060006101000a81548160ff02191690831515021790555060011515600360003373ffffffffffffffffffffffffffffffffffffffff1673ffffffffffffffffffffffffffffffffffffffff16815260200190815260200160002060008373ffffffffffffffffffffffffffffffffffffffff1673ffffffffffffffffffffffffffffffffffffffff16815260200190815260200160002060009054906101000a900460ff1615150361096a5760005b600260003373ffffffffffffffffffffffffffffffffffffffff1673ffffffffffffffffffffffffffffffffffffffff16815260200190815260200160002080549050811015610964578173ffffffffffffffffffffffffffffffffffffffff16600260003373ffffffffffffffffffffffffffffffffffffffff1673ffffffffffffffffffffffffffffffffffffffff168152602001908152602001600020828154811061089657610895611216565b5b9060005260206000200160000160009054906101000a900473ffffffffffffffffffffffffffffffffffffffff1673ffffffffffffffffffffffffffffffffffffffff1603610957576001600260003373ffffffffffffffffffffffffffffffffffffffff1673ffffffffffffffffffffffffffffffffffffffff168152602001908152602001600020828154811061093257610931611216565b5b9060005260206000200160000160146101000a81548160ff0219169083151502179055505b80806001019150506107e4565b50610afb565b600260003373ffffffffffffffffffffffffffffffffffffffff1673ffffffffffffffffffffffffffffffffffffffff16815260200190815260200160002060405180604001604052808373ffffffffffffffffffffffffffffffffffffffff168152602001600115158152509080600181540180825580915050600190039060005260206000200160009091909190915060008201518160000160006101000a81548173ffffffffffffffffffffffffffffffffffffffff021916908373ffffffffffffffffffffffffffffffffffffffff16021790555060208201518160000160146101000a81548160ff02191690831515021790555050506001600360003373ffffffffffffffffffffffffffffffffffffffff1673ffffffffffffffffffffffffffffffffffffffff16815260200190815260200160002060008373ffffffffffffffffffffffffffffffffffffffff1673ffffffffffffffffffffffffffffffffffffffff16815260200190815260200160002060006101000a81548160ff0219169083151502179055505b50565b600080fd5b600080fd5b600073ffffffffffffffffffffffffffffffffffffffff82169050919050565b6000610b3382610b08565b9050919050565b610b4381610b28565b8114610b4e57600080fd5b50565b600081359050610b6081610b3a565b92915050565b600080fd5b600080fd5b600080fd5b60008083601f840112610b8b57610b8a610b66565b5b8235905067ffffffffffffffff811115610ba857610ba7610b6b565b5b602083019150836001820283011115610bc457610bc3610b70565b5b9250929050565b600080600060408486031215610be457610be3610afe565b5b6000610bf286828701610b51565b935050602084013567ffffffffffffffff811115610c1357610c12610b03565b5b610c1f86828701610b75565b92509250509250925092565b600060208284031215610c4157610c40610afe565b5b6000610c4f84828501610b51565b91505092915050565b600081519050919050565b600082825260208201905092915050565b6000819050602082019050919050565b610c8d81610b28565b82525050565b60008115159050919050565b610ca881610c93565b82525050565b604082016000820151610cc46000850182610c84565b506020820151610cd76020850182610c9f565b50505050565b6000610ce98383610cae565b60408301905092915050565b6000602082019050919050565b6000610d0d82610c58565b610d178185610c63565b9350610d2283610c74565b8060005b83811015610d53578151610d3a8882610cdd565b9750610d4583610cf5565b925050600181019050610d26565b5085935050505092915050565b60006020820190508181036000830152610d7a8184610d02565b905092915050565b600081519050919050565b600082825260208201905092915050565b6000819050602082019050919050565b600081519050919050565b600082825260208201905092915050565b60005b83811015610de8578082015181840152602081019050610dcd565b60008484015250505050565b6000601f19601f8301169050919050565b6000610e1082610dae565b610e1a8185610db9565b9350610e2a818560208601610dca565b610e3381610df4565b840191505092915050565b6000610e4a8383610e05565b905092915050565b6000602082019050919050565b6000610e6a82610d82565b610e748185610d8d565b935083602082028501610e8685610d9e565b8060005b85811015610ec25784840389528151610ea38582610e3e565b9450610eae83610e52565b925060208a01995050600181019050610e8a565b50829750879550505050505092915050565b60006020820190508181036000830152610eee8184610e5f565b905092915050565b600082905092915050565b7f4e487b7100000000000000000000000000000000000000000000000000000000600052604160045260246000fd5b7f4e487b7100000000000000000000000000000000000000000000000000000000600052602260045260246000fd5b60006002820490506001821680610f7757607f821691505b602082108103610f8a57610f89610f30565b5b50919050565b60008190508160005260206000209050919050565b60006020601f8301049050919050565b600082821b905092915050565b600060088302610ff27fffffffffffffffffffffffffffffffffffffffffffffffffffffffffffffffff82610fb5565b610ffc8683610fb5565b95508019841693508086168417925050509392505050565b6000819050919050565b6000819050919050565b600061104361103e61103984611014565b61101e565b611014565b9050919050565b6000819050919050565b61105d83611028565b6110716110698261104a565b848454610fc2565b825550505050565b600090565b611086611079565b611091818484611054565b505050565b5b818110156110b5576110aa60008261107e565b600181019050611097565b5050565b601f8211156110fa576110cb81610f90565b6110d484610fa5565b810160208510156110e3578190505b6110f76110ef85610fa5565b830182611096565b50505b505050565b600082821c905092915050565b600061111d600019846008026110ff565b1980831691505092915050565b6000611136838361110c565b9150826002028217905092915050565b6111508383610ef6565b67ffffffffffffffff81111561116957611168610f01565b5b6111738254610f5f565b61117e8282856110b9565b6000601f8311600181146111ad576000841561119b578287013590505b6111a5858261112a565b86555061120d565b601f1984166111bb86610f90565b60005b828110156111e3578489013582556001820191506020850194506020810190506111be565b8683101561120057848901356111fc601f89168261110c565b8355505b6001600288020188555050505b50505050505050565b7f4e487b7100000000000000000000000000000000000000000000000000000000600052603260045260246000fd5b600082825260208201905092915050565b7f796f7520646f6e74206861657620616363657373000000000000000000000000600082015250565b600061128c601483611245565b915061129782611256565b602082019050919050565b600060208201905081810360008301526112bb8161127f565b905091905056fea2646970667358221220abf9f7be0b8ac849f93d0df27978e5d964adab453d66b95ef5ba30e15714b5bb64736f6c634300081c0033",
  "linkReferences": {},
  "deployedLinkReferences": {}
}